:100000000C9435010C947C010C947C010C947C01C3
:100010000C947C010C947C010C947C010C947C016C
:100020000C947C010C947C010C94C41B0C94981CC3
:100030000C9412130C947C010C947C010C947C01A4
:100040000C947C010C947C010C947C010C947C013C
:100050000C947C010C945D130C947C010C947C0139
:100060000C947C010C947C010C947C010C947C011C
:100070000C947C010C947C010C947C010C947C010C
:100080000C947C010C947C010C947C010C947C01FC
:100090000C947C010C947C010C947C010C947C01EC
:1000A0000C947C010C947C010C947C0100000403F2
:1000B0003000000032034D006900630072006F00E1
:1000C00073006F0066007400200057006900720022
:1000D0006500640020004B006500790062006F003D
:1000E000610072006400000032034D00690063008B
:1000F00072006F0073006F006600740020005700EC
:10010000690072006500640020004B006500790002
:1001100062006F00610072006400000004030904C3
:1001200009023B00020100A0FA09040000010301DA
:100130000100092111010001224000070581030887
:10014000000A090401000103000000092111010057
:100150000122BC000705820320000A1201100100E1
:10016000000008010001000100010203010501096E
:1001700002A10185020901A100050919012905153E
:100180000025019505750181029501750381010521
:1001900001093009311581257F950275088106090D
:1001A000381581257F950175088106050C0A3802EE
:1001B0001581257F950175088106C0C0050109805C
:1001C000A101850319012AB700150126B700950181
:1001D00075108100C0050C0901A101850419012ACF
:1001E000A002150126A002950175108100C005012D
:1001F0000906A1018505050719E029E71500250174
:100200009508750181020507190029EF15002501E0
:1002100095F07501810205081901290595057501FB
:100220009102950175039101C005010906A101051F
:100230000719E029E7150025019508750181029548
:1002400001750881010507190029FF150026FF0027
:1002500095067508810005081901290595057501A0
:100260009102950175039101C00011241FBECFEFCB
:10027000DAE0DEBFCDBF04B603FE27C080913902AD
:1002800090913A02A0913B02B0913C028730904B92
:10029000A740B04BD1F41092390210923A0210925A
:1002A0003B0210923C0214BE84B7877F84BF0FB616
:1002B000F894A89580916000886180936000109206
:1002C00060000FBEE0E0F8E3099511E0A0E0B1E0C6
:1002D000E8ECFDE302C005900D92A837B107D9F70D
:1002E00022E0A8E7B1E001C01D92A933B207E1F70F
:1002F0000E9404190C94BA1E0C9400000895809179
:100300007801882391F080EF0E949E0881EF0E947F
:100310009E0882EF0E949E0883EF0E949E0889EF4C
:100320000E949E088AEF0C949E080895892B39F448
:10033000FB018281882329F081E08093780181E0AC
:10034000089510927801FBCF81E008950C949601F6
:1003500008950C94A8011F93CF93DF9300D000D091
:100360000F92CDB7DEB749835A836B8330918801F2
:1003700089819A8131111DC06623B9F02223A9F029
:100380000E941510182F682F89819A810E94C60F2C
:1003900069817A81812F0F900F900F900F900F90AD
:1003A000DF91CF911F910C945B020E94F00F182FE8
:1003B000EFCF0E94151069817A81EDCFFC01262FC5
:1003C000408151816281738184810C94AB01CF9310
:1003D000DF93EC0160E00E94DE01BE01DF91CF916E
:1003E0000C94A9010E945911811102C00E940012AF
:1003F0000C9460040C94620408950E942D0B0E94DA
:10040000FC012FEF84E39CE0215080409040E1F715
:1004100000C000000C9481130F931F93CF93DF93C0
:10042000EC0161E00E94DE018C01BE010E94A60188
:10043000882329F1BE01C8010E9462058823F9F0D2
:10044000BE01C8010E94B4058823C9F0BE01C801DD
:100450000E94D706882399F08A81882339F00115F4
:100460008CE5180751F00E3D1C4579F0CE01DF9167
:10047000CF911F910F910C94A4010E94FD0180E087
:10048000DF91CF911F910F9108950E940012F7CF35
:1004900008950C94480281E008950C944B02CF9388
:1004A000C82F0E9449028C2FCF910C944D0290E0EE
:1004B00080E008950895272F260F3327331FF90171
:1004C000E80FF11DEE0FFF1FE455FF4F859194914A
:1004D0000895FC01EE0FFF1FE255FF4F85919491A7
:1004E0000895CF93DF930E945B020E948603EC0184
:1004F000811520E5920708F042C0811530E493078A
:1005000008F0BDC0883E910528F5803E910508F0B1
:100510009DC0883A910588F4853A910508F08FC00E
:100520008130910509F492C0009709F48FC00497B7
:1005300008F08CC0D0E0C0E089C08F3B910508F482
:1005400089C0805C9109C03CD105A0F30E9469027A
:10055000EC017CC08115904250F4C11581E0D807B0
:1005600008F074C0C03FD10528F3D0656FC0C11535
:1005700090E3D90708F079C0CE019F70E7CF8115CD
:1005800025E5920758F5811534E5930708F0A6C0D4
:10059000811542E5940750F4C11581E5D80708F4A8
:1005A00071C0DC2FCC27C16FD06A50C0982F9695B0
:1005B00096959E0123703327C115D34508F07FC05F
:1005C000C1E0D0E002C0CC0FDD1F2A95E2F720E2A7
:1005D000929FC0011124C82BD92B6FC0C11589E58A
:1005E000D807A8F4C11598E5D90708F07CC0C11553
:1005F00026E5D20708F09ECF8C2F0E941D04C82F3D
:10060000D0E0DC2FCC27CC27DF71D0621FC0C11512
:100610003AE5D30708F46CC0CE019056811590429C
:1006200008F088CF8D2F8F710E941D0490E0982FC5
:10063000882788279F719C012C2BE901E6CFC55A9A
:10064000D0E0CD5BDE4FC881D0E0D064CE01DF9139
:10065000CF910895C85AD0E0CC0FDD1FCB5EDE4F9E
:100660000990D881C02DD464F1CFCE019927D3FF52
:1006700003C0EC01D86CEACFEC01D06CE7CFDF709F
:10068000D06AE4CFCE01E4E096958795EA95E1F74C
:1006900083702C2F26952695237090E2299F900138
:1006A0001124382B8C2F8370C1E0D0E002C0CC0F16
:1006B000DD1F8A95E2F7C22BD32BDC68C7CFC1E0E0
:1006C000D0E002C0CC0FDD1F2A95E2F730E2939F05
:1006D000C0011124C82BD92BDA68B8CFD82FCC276A
:1006E000C46FD06AB3CFDC2FCC27C06FD06AAECF37
:1006F0008C2F8F700E941D0434E0D695C7953A95D3
:10070000E1F7CF709C2FEC01D069A0CF8238910522
:10071000B1F1B0F48133910509F475C048F4893220
:10072000910509F469C08A32910509F473C00895EE
:100730008533910509F459C08933910501F1089574
:10074000833E9105A9F138F4803E9105F9F0823E8F
:10075000910549F10895863E9105A9F1873E9105DD
:10076000C9F1843E910519F520912B0221FF1FC08C
:1007700080912A0284FD14C087EE90E008952091B4
:100780002A022370A1F080EE90E0089520912A02C1
:1007900020FD47C030912B0230FF09C024FF44C028
:1007A00090E080E004C020912A0222FDF7CF089556
:1007B00020912A0222FD3BC030912B0230FDE3CF75
:1007C00024FFF5CFEDCF20912A0223FFF0CF24FDA7
:1007D000E7CFD2CF20912A0223FD2CC030912B02EB
:1007E00031FFEECF84EE90E0089520912A0225FF9C
:1007F000DECF89E290E0089520912A0225FFD7CF2D
:1008000085E390E0089520912A0226FFD0CF8AE266
:1008100090E0089520912A0226FFC9CF81E390E05D
:10082000089589E390E0089583EE90E0089582EEC4
:1008300090E0089586EE90E0089590912A0292FF4C
:1008400006C0282F28712830F9F4877F846093FF31
:1008500006C0282F28712831F1F4877E8461209109
:100860002B0220FF06C0382F38713830D9F4877F2B
:10087000816021FF06C0282F28712831D1F4877E9E
:10088000816194FD877E0895282F24712430F9F624
:100890008B7F8860DCCF282F2471243101F78B7E79
:1008A0008861DDCF382F3171313019F78E7F886044
:1008B000E0CF282F2171213121F78E7E8861E1CF91
:1008C0000C947E010C947F01E82FF0E0EB5DFD4F6E
:1008D00080810895089580EA8A95F1F70895259812
:1008E0002D9A57985F9A109224021092250281E067
:1008F0000E94A0040C94F201CF93259A2D980E9497
:100900006B0489B190E0880F892F881F990B21E033
:10091000822725982D9A20912402C0E0281719F0EB
:1009200080932402C1E02C2F41E065E272E084E272
:1009300092E00E94A1040E94FA018C2FCF910895A9
:100940000895FF920F931F93CF93DF93F82E092FF3
:10095000162FD72FC42F222349F081E080937B01EB
:100960000E94421390937A018093790180917B01D8
:100970008823A1F08091790190917A010E944E1311
:10098000069760F0EF2DF02FA12FBD2FCE0FDF2F98
:10099000D11DEC17FD0741F410927B01DF91CF913F
:1009A0001F910F91FF90089581918D93F2CFAF9297
:1009B000BF92CF92DF92EF92FF920F931F93CF934C
:1009C000DF937C015B01C42FD22FFC01828188233D
:1009D000F9F040937E010E94421390937D01809331
:1009E0007C0180E28C0F883008F061C0C77081E024
:1009F00001C0880FCA95EAF7DF91CF911F910F913F
:100A0000FF90EF90DF90CF90BF90AF900C94B10823
:100A100010917E01141340C080917C0190917D0162
:100A20000E944E136C01B701C5010E94A30DC816A8
:100A3000D90690F5C0E2CD0F1D17B9F080E2810F05
:100A4000883040F4177081E001C0880F1A95EAF7EA
:100A50000E94B808C83048F481E09D2F977001C00B
:100A6000880F9A95EAF70E94B108802F0E949E088D
:100A7000C830E8F4D77081E001C0880FDA95EAF752
:100A8000DF91CF911F910F91FF90EF90DF90CF906A
:100A9000BF90AF900C94B80880E28C0F883038F487
:100AA000C77081E001C0880FCA95EAF7E9CFDF91EE
:100AB000CF911F910F91FF90EF90DF90CF90BF905B
:100AC000AF9008950F939C01CB01233F4CE5340771
:100AD00059F1A8F4283DFCE53F0701F1293D4CE51B
:100AE0003407D1F1273D3C4591F406E221EE41EE79
:100AF00067ED7CE50E94D70480E00F910895253FC3
:100B0000FCE53F07E9F0B0F0263F3C45F9F0FC0179
:100B10008281882339F110927E01EFCF07E225EE22
:100B200045EE68ED7CE5E6CF06E221EE40EE63EFB0
:100B30007CE5E0CF07E225EE44EE64EF7CE5DACF1A
:100B400006E221EE42EE65EF7CE5D4CF07E225EE2A
:100B500046EE66EF7CE5CECF08E221E045EE69ED9A
:100B60007CE5C8CF81E0C9CFCF93DF93EC01FB01D7
:100B70008281882309F419C1C230FCE5DF07C0F186
:100B8000C6319CE5D90730F09E012A5F3C452930EB
:100B9000310570F50E94761190932B0280932A0202
:100BA000C031ECE5DE0709F4CFC008F05BC0C83007
:100BB0008CE5D80709F4B6C088F5C430ECE5DE074B
:100BC00009F4A8C0C0F4C2308CE5D80709F49CC071
:100BD00080912A028260C330DC4509F498C080917C
:100BE0002A0290912B020E9484110E942D0B80E01A
:100BF000DF91CF91089580912A028061C630ECE5A3
:100C0000DE0709F484C080912A028860C730DC4581
:100C100008F47DC080912A02806279C0CC308CE5D6
:100C2000D80709F489C070F480912A028C60CA3018
:100C3000ECE5DE0709F46BC008F478C080912A0265
:100C40008E7F65C0CE308CE5D80709F479C08091DD
:100C50002A028B7FCF30DC4508F459C080912A02EC
:100C60008F7E55C0CB3FECE5DE0709F457C030F569
:100C7000C3318CE5D80709F46FC078F4C131ECE5D5
:100C8000DE0709F465C0C231DC4509F0A8CF0E9437
:100C90002D0B80912A028F773AC0C5318CE5D80799
:100CA00009F462C008F476C080912B028160CA3FCB
:100CB000DC4509F094CF80932B0291CFCF3FFCE528
:100CC000DF0709F44DC088F480912B028D7FCD3F62
:100CD0009CE5D90781F380912B028E7FCE3FDC45C6
:100CE00050F380912B028360E6CFC130FDE5DF0732
:100CF00009F459C008F444C080E0C230DD4509F071
:100D00006ECF0E9402126BCF80912A028160809385
:100D10002A0265CF80912A028460F9CF80912B024C
:100D20008260C9CF80912A028064F1CF0E942D0B8E
:100D300080912A028068EBCF80912A028D7FE7CFD5
:100D400080912A02877FE3CF80912A028F7DDFCFB7
:100D500080912A028F7BDBCF80912A02837FD7CFBD
:100D600080912B028C7FA7CF80912A0282FB99274A
:100D700090F921E0922790FB82F990FB83F9C7CF8D
:100D800080912B02982F909591708E7F892B90FBEC
:100D900081F991CF0E942D0B90912A02892F97FB08
:100DA00087F98058B4CF81E0ACCF81E021CFCF93D9
:100DB000DF93EB0186319C4511F50E94AA109A81C0
:100DC000992399F08A7A91E009F490E090937F0159
:100DD000811109C089E20E9485100E94F61080E00E
:100DE000DF91CF91089585E3F6CF80917F01811146
:100DF00004C089E20E948C10F0CF85E3FBCF81E034
:100E0000EFCF90938501809384010895E091840150
:100E1000F0918501309721F00190F081E02D099447
:100E200080E00895E0918401F0918501309799F078
:100E300020911401222359F020912A0227FF07C094
:100E4000DC012C9111962C93119725E02C930280B4
:100E5000F381E02D09940895E0918401F0918501DA
:100E6000309739F022E0DC012C930480F581E02DED
:100E70000994089520918201309183012817390740
:100E800071F09093830180938201E0918401F0914D
:100E90008501309721F00680F781E02D09940895AF
:100EA00020918001309181012817390771F09093CA
:100EB000810180938001E0918401F0918501309758
:100EC00021F00084F185E02D0994089585B78068AC
:100ED00085BF85B7806885BF0895089508950C94EF
:100EE0006D0708950C9471070E9466070E946E07B3
:100EF0000C946F0781E008950C947A070E943913CF
:100F00000E946F040E94C7130C9472070F931F93E3
:100F1000CF93DF93CDB7DEB72A970FB6F894DEBF35
:100F20000FBECDBF0E947C040E947C07811128C0A7
:100F30008FEF89838A831B820E9442138160782FFE
:100F40009D838C8349815A816B818D810E94F20738
:100F50000E9475160E940607909186018917B9F1C3
:100F60000E940607809386012A960FB6F894DEBF8A
:100F70000FBECDBFDF91CF911F910F910C944F0207
:100F800080E00E946404182F00918701081781F205
:100F90008091F30181FD0E946A04012700FFC8CF00
:100FA0001E821F82117018870E9442138160782F61
:100FB0009A8789874E815F8168858A850E94F207BA
:100FC0008091870191E0892780938701C1CF2A967C
:100FD0000FB6F894DEBF0FBECDBFDF91CF911F914A
:100FE0000F910895CF93DF93CDB7DEB72B970FB650
:100FF000F894DEBF0FBECDBF4F83588769877A87CD
:101000008B871E821D8285E0FE013796DE011196D8
:1010100001900D928A95E1F749815A816B817C811B
:101020008D819E812B960FB6F894DEBF0FBECDBF8B
:10103000DF91CF910C94A60DFC01808191810C94DD
:101040005710CF93C82F882309F447C08CEF8C0F1B
:10105000813AA0F46C2F80910001909101010E94CF
:101060001B12882329F08C2F0E948C100E94F610EE
:101070008C2F0E948510CF910C94F61080E28C0F7B
:10108000883048F4C77081E001C0880FCA95EAF73C
:101090000E94AD10F0CFEBE5EC0FE33040F4F0E050
:1010A000EC58FE4F808190E0CF910C943A07E8E530
:1010B000EC0FE73150F4F0E0EE0FFF1FEA5BFE4F5C
:1010C00080819181CF910C945007C03F30F08C2FDC
:1010D0000E946F15CF910C945A16CF9108958823D2
:1010E00061F19CEF980F913A20F40E948C100C94BF
:1010F000F61090E2980F983050F4877091E001C09C
:10110000990F8A95EAF7892F0E94B310F0CF9BE5DB
:10111000980F933020F490E080E00C943A0798E523
:10112000980F973120F490E080E00C945007803FB6
:1011300020F00E94D7150C945A160895CF93C82F0B
:101140000E942108C93349F42FEF87EE93E0215024
:1011500080409040E1F700C000008C2FCF910C94AC
:101160006F08882321F00E94AD100C94F6100895AA
:10117000882321F00E94B3100C94F6100895BF92BA
:10118000CF92DF92EF92FF920F931F93CF93DF9353
:101190006C01D62FC72FFC01058102950F701281BB
:1011A00011110E94CA100E94A310E82E882391F00A
:1011B0001123D1F08C2F807F803421F080E28D0FBD
:1011C000883090F082E00E9441110E94A31091E0CB
:1011D000E82EE926BC2EB2949FE0B922EB2DF0E078
:1011E000E454F14E0C945E1EE12CF4CF0C2F0F70E2
:1011F000C07F11F00295007F1123A9F0002359F060
:1012000080E28D0F883010F0D11109C0802F0E942C
:10121000AD100E94F6108D2F0E94210814C0802F5F
:101220000E94BD10F6CF8D2F0E946F08002359F049
:1012300080E28D0F883010F0D1112CC0802F0E94D9
:10124000B3100E94F6102B2D2850330B243031059B
:1012500020F40E9406070E944F02EE2009F49EC16E
:101260000E949F1080FD9AC1F60112820E9499107F
:101270000E942A0FC6010E94EF0A0E949910DF9176
:10128000CF911F910F91FF90EF90DF90CF90BF9083
:101290000C944B0F802F0E94C310D3CFFC2FFF70F4
:1012A000FF2EC07FC03219F0F29480EFF822DD23C8
:1012B00069F0D13049F1112391F1002351F1F60188
:1012C000858180FFA8CF8F70858323C0112381F093
:1012D000011106C00E94DD108F290E94B108B3CF12
:1012E0000130C1F70E94DD108F290E94E310ABCFBF
:1012F000011106C00E94EC108F2D0E94B808A3CFE8
:10130000013009F4A0CFF6CF112329F0063008F000
:101310009ACF8F2DE2CF053008F095CFEDCF002387
:1013200059F3D93349F4FFEF27EE33E0F150204071
:101330003040E1F700C000008D2F0E946F0883CF7E
:101340008C2F86958695837069F0813009F07BCF6C
:101350008D2F9C2F9370111102C090E080E00E94AD
:10136000500771CF8D2F9C2F9370111102C090E008
:1013700080E00E943A0767CF8D2F112329F00E9449
:101380006F150E945A165FCF0E94D715FACF8C2F87
:10139000837009F041C0111156CF4D2F42954695EB
:1013A0004770440F440F0D2F0F7010E030E020E025
:1013B000042E04C0000F111F221F331F0A94D2F7FE
:1013C00060E070E0CB01D4FF0FC06FE070E080E020
:1013D00090E004C0660F771F881F991F4A95D2F7C7
:1013E0006095709580959095C695C695C370602B55
:1013F000712B822B932BC23049F058F4C13019F075
:101400000E94DC0E20CF0E94CA0E1DCF0E94EE0E5D
:101410001ACF0E94C80E17CF8695112311F08C2F7A
:101420008170882309F40FCF4D2F42954695477060
:10143000440F440F0D2F0F7010E030E020E0042E19
:1014400004C0000F111F221F331F0A94D2F760E05F
:1014500070E0CB01D4FF0FC06FE070E080E090E05F
:1014600004C0660F771F881F991F4A95D2F76095B1
:10147000709580959095C695C695C370602B712B1D
:10148000822B932BC23049F058F4C13019F00E94DE
:10149000A10FD9CE0E948F0FD6CE0E94B30FD3CE0C
:1014A0000E94040FD0CECF70112329F08C2F0E9400
:1014B0002A0F8D2F12CF8D2F0E94B8088C2F0E94DB
:1014C0004B0FC1CED23F89F160F4D03FC9F0D13F7C
:1014D00029F1112309F442C001119DCE8C2F8F7187
:1014E00021C0D33F39F1D43FA1F7112369F1CF7166
:1014F0008C2F0E942A0F63E08C2F0E942C11A3CE08
:10150000112341F0053008F09ECE8C2F8F710E9480
:101510006E0F99CE063008F096CEF7CF8C2F8F71D4
:10152000112369F20E942A0F8ECE8C2F8F71112306
:10153000C9F3C5CF112329F08C2F8F710E94150F8D
:1015400082CE0E94100F7FCE81E00E9441110230B6
:1015500008F479CE82E00E94411175CE002359F043
:10156000D93309F0E9CE8FEF97EEE3E08150904058
:10157000E040E1F7DFCE8C2F8F71A1CF4C2F4F7061
:101580006D2FC6010E9457020E94400E5CCE4C2F68
:101590004F706D2FC6010E945A0255CEDF91CF9138
:1015A0001F910F91FF90EF90DF90CF90BF90089523
:1015B0000F931F93CF93DF93EC01688179818A8128
:1015C0000E9461108C010E94C50F0E94C70EB801D5
:1015D000CE01DF91CF911F910F910C94BF08CF9353
:1015E000DF93EC018B819C81892B29F08881998183
:1015F00089238F3F59F4DF91CF910895CE010E9446
:10160000D80ACE01DF91CF910C94E701CE010E9460
:101610000C028111F3CF0E94A310882361F38A8109
:10162000882349F382E0DF91CF910C9441110E940D
:10163000CA100E94DA100E94F6100E9481170E94C0
:101640005A1690E080E00E943A0790E080E00C9407
:1016500050070E9493100C94170B0E94BA100C9420
:10166000290BE92FE295EF70E250EE3070F4F0E0D4
:10167000E453F14E0C945E1E803F19F020F4883E36
:1016800020F481E00895843FE1F380E00895883EEE
:10169000C0F3813FD1F7F5CF93FB882780F90895F8
:1016A0000E9457100C94310BCF93DF9300D000D0E1
:1016B0000F92CDB7DEB70F900F900F900F900F9055
:1016C000DF91CF910895CF93DF9300D000D000D069
:1016D000CDB7DEB726960FB6F894DEBF0FBECDBFEE
:1016E000DF91CF9108951F93CF93DF93C09189012C
:1016F00016E080918A018C1304C0DF91CF911F9175
:101700000895D0E01C9FF0011D9FF00D1124E557B6
:10171000FE4F4081518162817381848195810E9455
:10172000630B2196C770E5CF4091BB015091BC017E
:101730006091BD017091BE018091BF019091C00187
:101740000C94630B1F93CF93DF938091C001807F34
:10175000A9F48091BD01882389F080918901C0910D
:101760008A016091BB017091BC01A091BE01B09152
:10177000BF01D62FD72316E0C81304C0DF91CF9145
:101780001F91089590E0109711F0DF3F19F4019632
:101790008770F2CF189F9001199F300D1124F90125
:1017A000E557FE4F41814713F2CF40814613EFCFFB
:1017B00042814111ECCF438154814A1B5B0B483C71
:1017C000510528F78091C0018F7080618093C0011E
:1017D000F901E057FE4F80818F70806180838BEB31
:1017E00091E00E94EF0ADF91CF911F910C94730B4F
:1017F000AF92BF92CF92DF92EF92FF920F931F931F
:10180000CF93DF93CDB7DEB761970FB6F894DEBF05
:101810000FBECDBF8C0185E0F801DE011D96019061
:101820000D928A95E1F7F80140815181E2808BEBBE
:10183000C82E81E0D82E6091BE017091BF01611564
:10184000710509F461C19091BB012091BC01892F00
:1018500082238F3F09F458C1A380B480F090BD016A
:10186000F501E61BF70BFF2009F4FCC08091C001D5
:10187000382F307FE83CF10508F0B2C0311179C053
:10188000FE2C251323C0941321C0E1101FC08F70BC
:1018900080618093C0010E94940BC6010E94EF0AF0
:1018A0008091C001F80185838F2D61960FB6F89461
:1018B000DEBF0FBECDBFDF91CF911F910F91FF9083
:1018C000EF90DF90CF90BF90AF900895AB2829F0B4
:1018D000842F85238F3F09F033C180E0F82FF1700A
:1018E000DF2E80FF3CC08091890120918A0136E083
:1018F000821315C04D875E878D859E850E94571087
:10190000292F22952F702230F0F0243018F59F7087
:10191000F1F0F8019581907FD1F4D12C1EC090E0B8
:10192000389FF001399FF00D1124E557FE4F61817A
:10193000651306C06081641303C062816E110FC01D
:1019400001968770D5CF9F7011F0882331F3805EA8
:10195000883018F3C8010E94EF0AFD2CA5CFEE20B5
:1019600009F4A2CF8091C00181608093C001F12C65
:101970009BCF251306C0941304C0F801EE2009F490
:101980008DC04D875E878D859E850E94500B882374
:1019900019F1EE2009F18091C001803270F02091A0
:1019A000BB013091BC0138872F831986BB86AA867C
:1019B0008C87CE0107960E94EF0A86E0F801ABEB18
:1019C000B1E001900D928A95E1F70E94A20B0E946E
:1019D000940BFF24F39468CFC8010E94EF0AF9CF5B
:1019E000311113C07A2DB98AA88A6E2D89890E9477
:1019F000540B8BEB91E00E94EF0A86E0F601119206
:101A00008A95E9F70E94940BB2CF25130FC0941367
:101A10000DC0E1100BC0F8018583C8010E94EF0AD8
:101A200086E0F60111928A95E9F73ECF4D875E87F1
:101A30008D859E850E94500B882371F2EE2061F205
:101A40008091C001803208F4B8CF2091BB01309161
:101A5000BC013A8329831B82BD82AC828E83CE0176
:101A60000196A9CFE83CF10508F041C0FE2CEE201C
:101A700009F4B2CF25132AC0941328C08091C00165
:101A800080FD1BC0982F907FC1F0F8018583903FA7
:101A900031F0982F907F905F8F70892B8583C801DC
:101AA0000E94EF0A86E0F801ABEBB1E001900D92E5
:101AB0008A95E1F70E94940BF7CE86E0F801ABEB34
:101AC000B1E001900D928A95E1F7EECE4D875E87E9
:101AD0008D859E850E94500B81116FCF8091C00132
:101AE00081608093C001C8010E94EF0ADDCE7A2D8B
:101AF000B98AA88A6E2D89890E94540B86E0F60166
:101B000011928A95E9F7D6CFEE2009F465CF4D877B
:101B10005E878D859E850E94500BF82E882309F4E0
:101B20005BCF86E0F801ABEBB1E001900D928A95B6
:101B3000E1F78BEB91E00E941C080E94A20BBACF48
:101B400081E08E25CBCE88EC90E008951F93CF9353
:101B5000DF93CDB7DEB72C970FB6F894DEBF0FBE7C
:101B6000CDBF4F83588769877A878B879C87CE0143
:101B700007960E94F80B882369F08A859B85892B3C
:101B800039F04F815885842F85238F3F09F071C02C
:101B900016E05FC086E0FE013796DE0111960190E7
:101BA0000D928A95E1F78A859B85892B89F3888533
:101BB0009F8189238F3F61F320918A0130E0C90121
:101BC000019687709927409189014817190671F489
:101BD0000E942D0B10928A011092890186E0EBEB96
:101BE000F1E0DF011D928A95E9F7D2CF96E0929F4E
:101BF000D001939FB00D1124A557BE4FFE01319621
:101C000001900D929A95E1F780938A010E94730BDF
:101C1000BFCF819FC001112485579E4F0E94F80BB2
:101C20008823E9F0E09189011E9FF0011124E55716
:101C3000FE4F4081518162817381848195810E9430
:101C4000630B8091890190E00196877099278093BA
:101C500089018091890190918A018913DACF2C96AC
:101C60000FB6F894DEBF0FBECDBFDF91CF911F91AD
:101C7000089569857A858B859C850E94630B88CF42
:101C8000EF92FF920F931F93CF93DF938C01892BD9
:101C900081F0F12CEE24E394E8012196F80184917F
:101CA000843770F4843008F05FC08130B1F0823046
:101CB000A1F1DF91CF911F910F91FF90EF900895C7
:101CC000853709F44CC008F43DC09CE7980F903765
:101CD00080F78F770E946F0849C00E5F1F4FFE018B
:101CE000849190E2980F983060F48770FE2D01C0C7
:101CF000FF0F8A95EAF78F2F0E94CD100E94F610F1
:101D000002C00E9421088F2D815030F2EFE9FFE0E0
:101D10003197F1F700C00000F7CF0E5F1F4FFE01B3
:101D2000849190E2980F983050F48770FE2D01C096
:101D3000FF0F8A95EAF78F2F0E94D310DFCF0E9402
:101D40006F08E1CF0E5F1F4FFE01C491C150D8F262
:101D50008FE99FE00197F1F700C00000F7CF0E5F19
:101D60001F4FFE01F490CFCF0E9421088E01CBCFF0
:101D700008950C94B80E0E94B90E6093CA01709336
:101D8000CB018093CC019093CD010C94170B089557
:101D90000C94BB0E0F931F930091CA011091CB01BD
:101DA0002091CC013091CD01602B712B822B932B94
:101DB0001F910F910C94BB0E0F931F930091CA01BA
:101DC0001091CB012091CC013091CD016023712382
:101DD000822393231F910F910C94BB0E0F931F939B
:101DE0000091CA011091CB012091CC013091CD011D
:101DF00060277127822793271F910F910C94BB0EA8
:101E00000C94B80E0C94000F0E94020F6093C60150
:101E10007093C7018093C8019093C9010C94170B6C
:101E200060E070E0CB010C94040F0F931F9341E02E
:101E300050E060E070E08A019B0104C0000F111FB8
:101E4000221F331F8A95D2F7C901B8011F910F9144
:101E50000C94040F0F931F9341E050E060E070E09A
:101E600004C0440F551F661F771F8A95D2F78091D3
:101E7000C6019091C701A091C801B091C9018A0122
:101E80009B01082B192B2A2B3B2BC901B8011F9151
:101E90000F910C94040F0F931F9341E050E060E00A
:101EA00070E004C0440F551F661F771F8A95D2F754
:101EB000CB01BA0160957095809590950091C6010F
:101EC0001091C7012091C8013091C901602371238D
:101ED000822393231F910F910C94040F0F931F9350
:101EE00041E050E060E070E004C0440F551F661F01
:101EF000771F8A95D2F78091C6019091C701A09172
:101F0000C801B091C9018A019B01082719272A2716
:101F10003B27C901B8011F910F910C94040F0F9337
:101F20001F930091C6011091C7012091C801309103
:101F3000C901602B712B822B932B1F910F910C9455
:101F4000040F0F931F930091C6011091C7012091B8
:101F5000C8013091C90160237123822393231F910B
:101F60000F910C94040F0F931F930091C6011091D1
:101F7000C7012091C8013091C901602771278227CC
:101F800093271F910F910C94040F0895980F892F98
:101F9000877041E001C0440F8A95EAF796959695BF
:101FA000969585E0989FF0011124EF53FE4F30E0A5
:101FB00020E070E05191DF011197CB01022E02C0A9
:101FC000969587950A94E2F78170819585278423F9
:101FD00085278C932F5F3F4F2530310559F70895A2
:101FE000980F692F677096959695969585E0989FBE
:101FF000F0011124EF53FE4F50E040E080E02191CA
:1020000030E0062E02C0369527950A94E2F721703B
:102010003327042E01C0220F0A94EAF7822B4F5F68
:102020005F4F4530510559F70895BF92CF92DF9227
:10203000EF92FF920F931F93CF93DF938C01C09089
:10204000C601D090C701E090C801F090C90180910D
:10205000CA019091CB01A091CC01B091CD01C82AC9
:10206000D92AEA2AFB2ACFE1D0E0BC2ED701C6014B
:102070000C2E04C0B695A795979587950A94D2F72C
:1020800080FD0EC0219788F7B12C8B2DDF91CF9169
:102090001F910F91FF90EF90DF90CF90BF90089528
:1020A000B8018C2F0E947102019761F3EECFCF939C
:1020B000DF93EC010E941510BE01DF91CF910C94CB
:1020C00071021F93CF93DF93EB01909188019923C5
:1020D00031F0CB01DF91CF911F910C9457108823E1
:1020E00079F0CB010E941510182F682FCE010E94A5
:1020F000C60FBE01812FDF91CF911F910C94710209
:10210000CB010E94F00F182FF4CF682F80910001AF
:10211000909101010C949B12682F80910001909185
:1021200001010C94A61280910001909101010C9480
:10213000B1128091CE018595859585950895809100
:10214000CE01877008959091CE01977081E009F4D7
:1021500080E008958091F20108959091F201892B19
:102160008093F201089580959091F20198239093C5
:10217000F20108951092F20108959091F101892BD6
:102180008093F101089580959091F10198239093A7
:10219000F10108951092F10108959091F001892BB9
:1021A0008093F001089580959091F0019823909389
:1021B000F00108951092F00108958091CF010895E3
:1021C00008950C94E0109091CF01981721F080931E
:1021D000CF010C94E11008958091CF01882329F05C
:1021E0001092CF0180E00C94E1100895E09100017D
:1021F000F09101018091F2018083E0910001F09162
:10220000010180819091F101892B8083E09100018F
:10221000F091010180819091F001892B8083909150
:10222000CF01992381F0E0910001F09101018081BB
:10223000892B808380910001909101010E940712F7
:1022400081110E94EC1080910001909101010C9489
:10225000120708950C94291198E0899F9001112488
:10226000622B6093CE010E942A0F8091CE0185954A
:10227000859585950C942A111092CE0180E00C94DE
:102280002A119091CE01809589238093CE01282F29
:10229000277071F4282F082E000C330B92171306A9
:1022A00039F08595859585950E944B0F0C943C11CE
:1022B000089590E080E00E94801E21E08C3E9E4FB9
:1022C00009F020E0822F089582E090E00C94781EBF
:1022D000682F82E090E00C94861E83E090E00C94DE
:1022E000781E682F83E090E00C94861ECF9384E0E4
:1022F00090E00E94781EC82F81E290E00E94781E34
:10230000982F8C2FCF910895CF93C92F682F84E0F9
:1023100090E00E94861E6C2F81E290E0CF910C9499
:10232000861EAB01BC018FE090E00C94981EAB01BF
:10233000BC0183E190E00C94981E60E070E0CB015A
:102340000C94971160E070E0CB010E9491110C9405
:102350009D116CEE7EEF90E080E00E94A41E60E094
:1023600082E090E00E94861E60E083E090E00E94A0
:10237000861E1092CA011092CB011092CC011092CD
:10238000CD0160E084E090E00E94861E60E081E282
:1023900090E00E94861E60E085E090E00E94861E2C
:1023A00060E086E090E00E94861E6FEF87E090E09C
:1023B0000E94861E40E050E0BA0188E090E00E9452
:1023C000981E60E08DE090E00E94861E40E050E0A4
:1023D000BA0188E190E00E94981E60E087E190E0F9
:1023E0000E94861E40E050E0BA018CE190E00E941D
:1023F000981E60E080E290E00E94861E0C94A2117C
:102400000C94A911682F8EE090E00C94861EFC01BC
:10241000329680911401882321F080912A029EE156
:1024200087FF96E080E0915008F4089521912223DF
:10243000D1F38F5FF8CF662301F12091140122239D
:10244000F1F020912A0227FF1AC0462F46954695A3
:1024500046954E3190F4677021E030E002C0220FC3
:10246000331F6A95E2F7840F911DFC01828190E091
:102470002823392381E0232B69F480E00895FC01AF
:10248000329608962191261721F0E817F907D1F71F
:10249000F4CF81E008959C01FC0132969FEF80E02B
:1024A0004191461751F09F3F19F4411101C0982FF7
:1024B0008F5F8630A9F79F3F09F40895290F311DDA
:1024C00097FD3A95F90162830895FC0132960896CA
:1024D0002191261303C0DF0111971C92E817F90719
:1024E000B9F70895E62FE695E695E695EE3168F49E
:1024F000E80FF92FF11D677021E030E001C0220FD5
:102500006A95EAF78281822B82830895E62FE69509
:10251000E695E695EE3170F4E80FF92FF11D67703E
:1025200021E030E001C0220F6A95EAF72095828110
:1025300028232283089520911401222329F0209139
:102540002A0227FD0C9472120C944B122091140154
:10255000222329F020912A0227FD0C9486120C9444
:102560006512FC01329680911401882351F080910C
:102570002A0287FF06C08EE1DF011D928A95E9F7E6
:10258000089586E0F9CF089508950C94C4120E942E
:10259000C51280913002843049F11092F40188E133
:1025A00090E020E40FB6F894A895809360000FBEE9
:1025B0002093600080E00E944F020E94C51283B702
:1025C000817F846083BF83B7816083BF789488955F
:1025D00083B78E7F83BF0FB6F894A8958091600073
:1025E000886180936000109260000FBE0895089586
:1025F0000E94C3120E947C040E94F71280E00E9495
:10260000640491E0811101C090E0892F089508953C
:102610000C9407130E942D0B0E9406070E944F0284
:102620000C9408131F921FB61F9211248F939F932F
:10263000AF93BF938091F401811113C08091260262
:1026400090912702A0912802B09129024196A11DE4
:10265000B11D8093260290932702A0932802B09385
:102660002902BF91AF919F918F911F901FBE1F9024
:10267000189582E084BD93E095BD9AEF97BD809355
:102680006E0008952FB7F89480912602909127024A
:10269000A0912802B09129022FBF08959C014FB745
:1026A000F8948091260290912702A0912802B0917F
:1026B00029024FBF821B930B089578941F921FB677
:1026C0001F9211248F939F93AF93BF938091260203
:1026D00090912702A0912802B09129020196A11D94
:1026E000B11D8093260290932702A0932802B093F5
:1026F0002902BF91AF919F918F911F901FBE1F9094
:10270000189581E08093E00080E28093D8001092D9
:10271000C9008FE19EE40197F1F700C0000087E057
:1027200090EBDC018093390290933A02A0933B0234
:10273000B0933C0288E19CE00FB6F894A895809392
:1027400060000FBE90936000FFCFCF93C82F80E052
:102750000E94640480FF09C060E070E080E00E9495
:102760005B0221E0C817190609F020E0822FCF9103
:102770000895CF93C82F8CE20E94A513882321F0DF
:102780008C2FCF910C94A51380E0CF910895CF9317
:102790000E945911811102C00E940012C5E608C0B2
:1027A0000E947C048FE39CE90197F1F700C00000D0
:1027B000C150B1F789E20E94B91381110BC18AE2BD
:1027C0000E94B91381110E94001285E00E94B91382
:1027D00081110E9481130E9464118093F30187E0AC
:1027E0000E94B913882371F08BE10E94B9138823EA
:1027F00009F4CDC09091F301892F8D7F91FF826004
:102800008093F3018091F3010E9468110E94761178
:1028100090932B0280932A0280EE0E94B9138823A2
:1028200041F090912A02892F8E7F90FF81608093E2
:102830002A0289E30E94B913882341F090912A0269
:10284000892F8D7F91FF826080932A0282EE0E9401
:10285000B913882341F090912A02892F8B7F92FF30
:10286000846080932A0286EE0E94B913882341F087
:1028700090912A02892F877F93FF886080932A0294
:1028800083EE0E94B913882341F090912A02892F88
:102890008F7E94FF806180932A0285E30E94B913A2
:1028A000882341F090912A02892F8F7D95FF8062C5
:1028B00080932A0281E30E94B913882341F090910A
:1028C0002A02892F8F7B96FF806480932A0281E100
:1028D0000E94B913882341F090912A02892F97FB17
:1028E00087F9805880932A0280912A0290912B02C6
:1028F0000E94841187E20E94B913C82F8EE10E94C2
:10290000B9138111C2608FE10E94B9138111C460B3
:1029100080E20E94B9138111C86081E20E94B9135C
:102920008111C06182E20E94B9138111C06283E209
:102930000E94B9138111C06484E20E94B9138823F4
:1029400009F442C0C0688C2F0E9471116C2F70E096
:1029500090E080E00E94C80E6091C6017091C701AE
:102960008091C8019091C9010E94020F8FE00E94DE
:10297000B913882319F081E00E94021285E10E94B8
:10298000B913882339F180E0CF910C9402128EE0C4
:102990000E94B913882339F09091F301892F8B7F1E
:1029A00092FF84602DCF80E10E94B9139091F301D2
:1029B000882329F0892F877F93FF886021CF892F73
:1029C0008E7F90FF81601CCFC111BDCF0E946D1121
:1029D000682FBDCFCF9108958091FB0180FF12C079
:1029E0006091070185E0689FB00111247595679596
:1029F0007595679560387105A8F561157105A1F1A8
:102A0000862F089581FF09C06091070185E0689FC6
:102A1000B001112475956795EDCF6091070182FD96
:102A20000AC08091FA018823D1F09091060160914B
:102A30000701891728F085E0689FB0011124DACFDB
:102A4000869FB001112485E0869F9001879F300DFD
:102A50001124692F70E0C9010E944A1ECBCF65E0A6
:102A600070E0CECF8FE7089581E008958091FB015B
:102A700080FF0CC06091030170E0759567957595B6
:102A800067956115710549F1862F089581FF06C08C
:102A90006091030170E075956795F3CF6091030134
:102AA00082FD0BC09091F9019923A1F06091020180
:102AB00080910301961738F0682F70E06038710537
:102AC00000F38FE70895899FC001112470E00E94F0
:102AD0004A1EF4CF61E070E0D7CF81E00895803FD7
:102AE00031F40E94EC1481958093FF010895813F99
:102AF00019F40E94EC14F8CF823F31F40E94EC14D8
:102B000081958093FE010895833F19F40E94EC148F
:102B1000F8CF893F29F40E9436158093000208956A
:102B20008A3F21F40E9436158195F7CF8B3F31F40F
:102B30000E94361581958093010208958C3F19F407
:102B40000E943615F8CF843F31F48091FD018160F9
:102B50008093FD010895853F21F48091FD018260FD
:102B6000F7CF863F21F48091FD018460F1CF873F4C
:102B700021F48091FD018860EBCF883F21F48091A2
:102B8000FD018061E5CF8D3F31F48091FB018160D3
:102B90008093FB0108958E3F21F48091FB018260B8
:102BA000F7CF8F3FB9F78091FB018460F1CF90910F
:102BB000FE01803F59F48091FF0187FF0DC0109204
:102BC000FF0191110BC01092FA0108C0813F81F4FE
:102BD0008091FF0118169CF3992381F080910002E7
:102BE00090910102892B09F064C01092F9010895B7
:102BF000823F49F497FFF0CF1092FE018091FF01D0
:102C00008111ECCFE0CF833F19F41916ACF3E4CF78
:102C100020910002893F29F41216F4F61092000266
:102C2000DBCF8A3F19F427FFD7CFF8CF20910102DD
:102C30008B3F29F427FFD0CF10920102CDCF8C3FDC
:102C400019F41216CCF3C8CF843F31F48091FD0102
:102C50008E7F8093FD01C0CF853F21F48091FD01DF
:102C60008D7FF7CF863F21F48091FD018B7FF1CFDF
:102C7000873F21F48091FD01877FEBCF883F21F4CE
:102C80008091FD018F7EE5CF8D3F31F48091FB0176
:102C90008E7F8093FB01A0CF8E3F21F48091FB01BA
:102CA0008D7FF7CF8F3F09F097CF8091FB018B7F0E
:102CB000F0CF08950E9442139C019091FE018091F3
:102CC000FF01982B21F03093F8012093F7019091A8
:102CD000000280910102982B21F03093F60120939D
:102CE000F5018CEF91E00C942C07EF92FF920F937B
:102CF0001F93CF93DF9300D000D000D0CDB7DEB7C5
:102D000086E0ECEFF1E0DE01119601900D928A95DC
:102D1000E1F7E090FE01F090FF01009100021091B8
:102D200001021092FE011092FF0110920002109217
:102D300001028E2D8F2991F08091F7019091F80179
:102D40000E944E13AC019091FA01992309F43FC0FF
:102D5000809108018417150608F447C0802F812B45
:102D600091F08091F5019091F6010E944E13AC0113
:102D70009091F901992309F477C080910401841797
:102D8000150608F47FC08091FE019091FF01892B08
:102D900090910002892B90910102892B11F00E94E1
:102DA0005A1686E0FE013196ACEFB1E001900D922B
:102DB0008A95E1F726960FB6F894DEBF0FBECDBF19
:102DC000DF91CF911F910F91FF90EF900895209187
:102DD00009018AE0289F900111242417350708F083
:102DE000BDCF9F5F9093FA0102C09F3FD1F7EE20C5
:102DF00059F00E94EC149FEF1E140CF491E0899F8F
:102E0000802D11248093FE01FF2059F00E94EC14C4
:102E10009FEF1F140CF491E0899F802D1124809363
:102E2000FF013091FE01332309F498CF2091FF0177
:102E3000222309F493CF45EB3403C00111249923D5
:102E400059F09093FE0145EB2403900111243323A4
:102E500039F03093FF0182CF81E08093FE01F3CF00
:102E600081E08093FF017ACF209105018AE0289FBD
:102E7000900111242417350708F085CF9F5F9093A8
:102E8000F90102C09F3FD1F7002359F00E94361587
:102E90009FEF10160CF491E0899F802D11248093F0
:102EA0000002112359F00E9436159FEF11160CF401
:102EB00091E0899F802D11248093010230910002BE
:102EC000332309F460CF20910102222309F45BCF60
:102ED00045EB3403C0011124992359F0909300026B
:102EE00045EB240390011124332339F03093010280
:102EF0004ACF81E080930002F3CF81E0809301020A
:102F000042CF86E0ECEFF1E0DF011D928A95E9F710
:102F10001092FA011092F9011092FB01089580912C
:102F200022020895CF93DF9300D00F92CDB7DEB782
:102F300090913002943019F589837B836A8382E013
:102F40008093E9008FEF9091E800815095FD06C0D5
:102F500095ED9A95F1F700008111F5CF8091E80089
:102F600085FF0DC050E040E063E070E0CE010196C7
:102F70000E94B9198091E8008E778093E8000F9045
:102F80000F900F90DF91CF910895BC0184E00C94D5
:102F90009217BC0183E00C9492179C0182E080930D
:102FA000E9009FEF8091E800915085FD06C085ED16
:102FB0008A95F1F700009111F5CF8091E80085FF27
:102FC0000CC050E040E066E070E0C9010E94B91911
:102FD0008091E8008E778093E8000895CF93DF9387
:102FE000EC01809114018823B1F180912A0287FFBE
:102FF00032C060E282E08093E9008FEF9091E800B8
:10300000815095FD06C095ED9A95F1F7000081116C
:10301000F5CF8091E80085FF1BC08091140170E01E
:1030200050E040E0811104C050E040E068E070E012
:10303000CE010E94B9198091E8008E778093E80054
:1030400080E2FE01A2E0B2E001900D928A95E1F7E4
:10305000DF91CF91089568E081E0CDCF80912F027C
:10306000811109C00E94491B0E94A61B8091E200A9
:1030700084608093E200089510922F0208950895CD
:1030800008950C940A1342E061EC81E00E94C51A95
:1030900042E261EC82E00C94C51A809132028330E6
:1030A00009F45FC030F48130C1F1823009F49BC073
:1030B00008958A3009F487C08B3009F46DC08930D7
:1030C00009F04EC080913102813209F049C08091EF
:1030D000350290913602029708F042C08091E800D4
:1030E000877F8093E8008091E80082FF35C090914F
:1030F000F3008091F200029729F48091F1008B7F18
:10310000813021F48091F100809322028091E800C7
:103110008B778093E8000C94F91A80913102813A00
:10312000F9F48091E800877F8093E8008091350270
:1031300090913602892B61F460E282E092E070E0C7
:103140000E94081A8091E8008B778093E800089528
:1031500060E090E080E0F3CF809130028111C3CF36
:10316000089580913102813AD9F78091350290918A
:103170003602892BA9F78091E800877F8093E800C9
:103180008091E80080FFFCCF809114018093F100D2
:103190008091E8008E77BDCF80913102813201F7B6
:1031A0008091350290913602892BD1F68091E8000A
:1031B000877F8093E8000E94F91A80913302809300
:1031C00014010C942D0B80913102813249F68091CB
:1031D000E800877F8093E8000E94F91A809134020A
:1031E00080932302089580913102813A09F0B8CF8B
:1031F0008091E800877F8093E8008091E80080FF5D
:10320000FCCF80912302C2CF84B7877F84BF0FB6E3
:10321000F894A89580916000886180936000109276
:1032200060000FBE80E890E00FB6F89480936100D4
:10323000909361000FBE0E9474070E94491B0E9478
:10324000A61B8091E20084608093E20078940E9443
:103250002F1E0E947E078AE091E00E940107809164
:103260003002853019F00E948607F9CF0E94C712FC
:1032700080912E02882399F30E94F812882379F313
:103280000E94A319ECCF0C944519292F3327233022
:10329000310519F168F42130310509F44AC02230B2
:1032A000310509F44BC090E080E030E020E028C018
:1032B0002132310579F122323105A9F780E490E01D
:1032C00029E232E061157105D9F08CEB90E02DE632
:1032D00031E061307105A1F0E6CF99278130910589
:1032E00099F0009741F08230910589F00397D9F663
:1032F000EEEAF0E002C0ECE1F1E0849190E09F01A1
:10330000FA01318320830895E8EEF0E0F6CFE4EB94
:10331000F0E0F3CF89E090E022E331E06115710540
:1033200079F389E090E02BE431E06130710541F3FD
:10333000BACF82E190E02BE531E0E2CF8BE390E081
:1033400020E231E0DDCF80E189BD82E189BD09B4B1
:1033500000FEFDCF8091D8008F7D8093D8008091B2
:10336000E00082608093E0008091E00081FDFCCF6E
:103370000895AF92BF92CF92DF92FF920F931F9367
:10338000CF93DF936C01EB018A010E94181BF82E8A
:10339000811123C00115110539F0F8018081918157
:1033A000C81BD90BC80ED91EB12CA12C2097A9F08F
:1033B0008091E80085FD22C08091E8008E7780939F
:1033C000E80001151105A1F0F80180819181A80E96
:1033D000B91EB182A08285E0F82E8F2DDF91CF91AA
:1033E0001F910F91FF90DF90CF90BF90AF90089505
:1033F0000E94181B8823D1F2F82EEFCFF60181919D
:103400006F018093F1002197FFEFAF1ABF0ACECF73
:10341000FC01809137029091380286179707A0F03F
:103420006115710529F49091E8009E779093E8006A
:1034300090E06115710551F4911108C08091E80088
:1034400082FF34C080E00895BC01F2CF8091300249
:103450008823C1F18530C1F18091E80083FD30C03F
:103460008091E80082FDEACF8091E80080FFE1CF03
:103470008091F3002091F200382F6115710519F049
:103480002830310558F091E02830310509F090E0FE
:103490002091E8002E772093E800CBCF8191809394
:1034A000F100615071092F5F3F4FE7CF80913002EB
:1034B000882341F0853041F08091E80083FFBECF42
:1034C00081E0089582E0089583E00895FC018091F1
:1034D00037029091380286179707A0F061157105A1
:1034E00029F48091E8008E778093E80090E06115E0
:1034F000710551F4911108C08091E80082FF35C038
:1035000080E00895BC01F2CF809130028823C9F198
:103510008530C9F18091E80083FD31C08091E800D9
:1035200082FDEACF8091E80080FFE1CF8091F30037
:103530002091F200382F6115710519F028303105FE
:1035400058F091E02830310509F090E08091E800D2
:103550008E778093E800CBCF84918093F1003196F1
:10356000615071092F5F3F4FE6CF80913002882371
:1035700041F0853041F08091E80083FFBDCF81E0CC
:10358000089582E0089583E00895982F973028F0F9
:103590008F708093E90081E008959093E900242FD3
:1035A000762F50E0981731F07091EC002091ED00EB
:1035B0005091F00021FD02C09F5FE8CF3091EB00F9
:1035C0003E7F3093EB003091ED003D7F3093ED0076
:1035D0003091EB0031603093EB007093EC0020935E
:1035E000ED005093F0002091EE0027FDE5CF80E044
:1035F00008958091310287FF13C08091E80082FF17
:1036000006C08091E8008B778093E80004C0809129
:1036100030028111F2CF0895809130028823D9F3CE
:103620008091E80080FFF8CF8091E8008E77ECCFA2
:103630002091E4003091E50095E6A9012091EC008D
:10364000822F817020FF06C08091E80080FF06C0B5
:1036500080E008952091E80022FD1AC08091300298
:10366000882389F0853089F08091EB0085FD0FC0BB
:103670002091E4003091E50042175307F9F2915090
:10368000E1F684E0089582E0089583E0089581E002
:1036900008950E94B71B0E94BF1BE0EEF0E08081FE
:1036A00081608083E8EDF0E080818F77808319BCB2
:1036B000A7EDB0E08C918E7F8C9380818F7E80838C
:1036C00010922F0208950F931F93CF93DF930E94C0
:1036D000B71B0E94BF1BC8EDD0E088818F7788831D
:1036E00088818068888388818F7D888319BC109247
:1036F000300210922C0210922E0210922D0200EE37
:1037000010E0F80180818B7F8083888181608883CD
:1037100042E060E080E00E94C51AE1EEF0E08081C6
:103720008E7F8083E2EEF0E0808181608083808103
:1037300088608083F80180818E7F808388818061AA
:103740008883DF91CF911F910F910895E8EDF0E00C
:1037500080818F7E8083E7EDF0E0808181608083CF
:1037600084E082BF81E080932F020C94631BE8ED1C
:10377000F0E080818E7F80831092E20008951092A5
:10378000DA001092E10008951F920F920FB60F9287
:1037900011242F933F934F935F936F937F938F9356
:1037A0009F93AF93BF93EF93FF938091E10082FFCC
:1037B0000BC08091E20082FF07C08091E1008B7F07
:1037C0008093E1000E942E1E8091DA0080FF19C0D4
:1037D0008091D80080FF15C08091DA008E7F8093A1
:1037E000DA008091D90080FF96C080E189BD82E136
:1037F00089BD09B400FEFDCF81E0809330020E94B4
:103800002E188091E10080FF19C08091E20080FFB6
:1038100015C08091E2008E7F8093E2008091E200EB
:1038200080618093E2008091D80080628093D8000C
:1038300019BC85E0809330020E9440188091E1001D
:1038400084FF2BC08091E20084FF27C080E189BD06
:1038500082E189BD89B5982F917080FFFBCF80915F
:10386000D8008F7D8093D8008091E1008F7E809377
:10387000E1008091E2008F7E8093E2008091E2007F
:1038800081608093E20080912C02882309F449C072
:1038900084E0809330020E9441188091E10083FF10
:1038A00029C08091E20083FF25C08091E100877FDD
:1038B0008093E10082E08093300210922C0280918C
:1038C000E1008E7F8093E1008091E2008E7F809303
:1038D000E2008091E20080618093E20042E060E0DB
:1038E00080E00E94C51A8091F00088608093F0000B
:1038F0000E943F18FF91EF91BF91AF919F918F91DF
:103900007F916F915F914F913F912F910F900FBEDB
:103910000F901F90189519BC109230020E943C180D
:1039200070CF8091E30087FD93E090933002B3CF96
:103930001F920F920FB60F9211242F933F934F9324
:103940005F936F937F938F939F93AF93BF93CF9327
:10395000DF93EF93FF93D091E900DF708091EC004B
:10396000C82FC17080FDC0E81092E9008091F0007E
:10397000877F8093F00078940E94DC1C1092E9000D
:103980008091F00088608093F000CD2BCF70C093C1
:10399000E900FF91EF91DF91CF91BF91AF919F919E
:1039A0008F917F916F915F914F913F912F910F90E8
:1039B0000FBE0F901F9018951F93CF93DF93CDB735
:1039C000DEB7AA970FB6F894DEBF0FBECDBF81E376
:1039D00092E02091F100FC012193CF01F2E08933C4
:1039E0009F07B9F70E944D188091E80083FF1EC120
:1039F00080913102909132029A3008F017C1E92F7C
:103A0000F0E0E652F14E0C945E1E803899F0823858
:103A100009F00CC1809135028F70873008F006C123
:103A20008093E9008091EB0085FB882780F9109254
:103A3000E90006C080912D0290912E0291118260C2
:103A40009091E800977F9093E8008093F1001092A6
:103A5000F1008091E8008E77E5C0882309F4D3C097
:103A6000823009F0E3C0809133028111D6C0809189
:103A700035028F702FEF280F263008F0D7C08093C3
:103A8000E9002091EB0020FFC8C0933031F4809111
:103A9000EB0080628093EB00C0C09091EB009061DE
:103AA0009093EB0021E030E001C0220F8A95EAF705
:103AB0002093EA001092EA008091EB008860EACF40
:103AC0008111B4C0109133021F778091E300807898
:103AD000812B8093E3008091E800877F8093E8004A
:103AE0000E94F91A8091E80080FFFCCF8091E300EA
:103AF00080688093E30082E0111183E080933002BC
:103B000095C08058823008F091C080913302909126
:103B100034028C3D23E09207A1F583E08A838AE298
:103B200089834FB7F894DE01139620E03EE051E21E
:103B3000E32FF0E050935700E49120FF03C0E2959B
:103B4000EF703F5FEF708E2F90E0EA30C0F0C796C5
:103B50008D939D932F5F243159F74FBF8091E800DB
:103B6000877F8093E8006AE270E0CE0101960E94B0
:103B7000081A8091E8008B778093E80057C0C096C0
:103B8000E7CF6091350270913602AE014F5F5F4F13
:103B90000E944319BC01892B09F448C09091E800A8
:103BA000977F9093E80089819A810E94661AE1CFFD
:103BB0008038E1F58091E800877F8093E80080916C
:103BC0002C028093F10045CF811130C090913302D7
:103BD000923060F58091E800877F8093E8009093B1
:103BE0002C020E94F91A80912C02882311F084E0A3
:103BF00005C08091E30087FDFACF81E08093300219
:103C00000E94431813C080913302813079F481E01F
:103C1000933009F080E080932E021092E9008091A9
:103C2000E800877F8093E8000E94F91A8091E800FD
:103C300083FF0AC08091E800877F8093E80080912D
:103C4000EB0080628093EB00AA960FB6F894DEBF7B
:103C50000FBECDBFDF91CF911F9108950895CF93EF
:103C6000809130028823A1F0C091E900CF7090913B
:103C7000EC00892F817090FD80E8C82B1092E9003C
:103C80008091E80083FD0E94DC1CCF70C093E900A6
:103C9000CF91089597FB072E16F4009407D077FD77
:103CA00009D00E94641E07FC05D03EF490958195D2
:103CB0009F4F0895709561957F4F0895EE0FFF1FF8
:103CC0000590F491E02D0994AA1BBB1B51E107C09C
:103CD000AA1FBB1FA617B70710F0A61BB70B881F9C
:103CE000991F5A95A9F780959095BC01CD0108952B
:103CF000F999FECF92BD81BDF89A992780B50895B4
:103D0000A8E1B0E042E050E00C94AC1E262FF999F7
:103D1000FECF92BD81BDF89A019700B4021639F02A
:103D20001FBA20BD0FB6F894FA9AF99A0FBE0895FB
:103D30000396272F0E94871E0E94861E252F0E9411
:103D4000871E242F0C94871E0196272F0E94871E02
:103D50000C94861EDC01CB01FC01F999FECF06C054
:103D6000F2BDE1BDF89A319600B40D924150504039
:103D7000B8F70895F894FFCFF608F6084E094E09F3
:103D8000A009BC0923092309C709530A620A620A68
:103D9000BE0A23092309C70A3C0B3C0B450B450B04
:103DA000470B450B450B450B3C0B3C0B4C0B450B9C
:103DB000450B4C0B051D2D1D161E2D1D161E601DC1
:083DC000811D161ED81DE41D33
:103DC800D0012808641E140A321E8F17EE17CD176B
:103DD800C917C51701E200E900EA00B500B600B747
:103DE80000CD008301CC008A0192019401210223B5
:103DF8000224022502260227022A02B300B4006F19
:103E0800007000818283E200E900EA00B500B60094
:103E1800B700CD008301CC008A01920194012102F0
:103E2800230224022502260227022A02B300B40034
:083E38006F007000818283001D
:00000001FF
